:03000000020828CB
:0C082800787FE4F6D8FD75812602086F89
:1000D600A5209BDA931C8ADA830E7BB474C26E3435
:1000E6006806622E5CAC577852904DEE498C456C92
:1000F60041883DDA3A60371A340231182E562BBC45
:10010600294826F624C622B620C41EF01D301B8EB2
:100116001A02188C172A15DE00000C320E32103225
:100126000C320C320E3210320C3210321132136491
:1001360010321132136413191519131911191032CB
:100146000C32131915191319111910320C321032F9
:1001560007320E64103207320E6424FAFF0E5A0C70
:100166001E0E5A0C1E0E3C103C133C103C0E5A0C34
:100176001E0E5A0C1E0E1E101E0E1E0C1E09780E8A
:100186005A0C1E0E5A0C1E0E3C103C133C103C0E14
:100196005A0C1E0E3C0C3C0EF00E5A0C1E0E5A0C3F
:1001A6001E0E3C103C133C103C0E5A0C1E0E3C0C12
:1001B6003C0978101E0E1E0C1E0E1E0C78101E0E0C
:1001C6001E0C1E0E1E0C5A071E101E0E1E0C1E0E98
:1001D6001E0CF00C3C0E3C103C0C3C153C131E1542
:1001E600780C1E173C151E1796173C151E171E2455
:1001F6003C103C181E1A1E181E171E153C133C15E3
:100206003C131E151E241E131E151E131E153C130D
:100216001E0E1E243C133C107824780C3C0E3C1019
:100226003C0C3C153C131E151E245A0C1E173C157F
:100236001E171E2478173C151E171E243C103C184A
:100246001E1A1E181E171E153C133C153C1C1E1CA0
:100256001E243C133C153C1C1E1C1E243C133C1542
:100266007824F0183C1A3C1C3C211E1F1E243C21FD
:100276001E1F1E243C211E1F1E243C1A1E1C1E244B
:100286003C211E1F1E243C211E1F1E243C211E1F16
:100296001E241E1C5A1A3C181E151E243C181E1815
:1002A6001E1A1E181E153C241E185A1C78241E1DC4
:1002B6001E1C1E1A1E1C1E1A5A183C1A3C1C3C21D7
:1002C6001E1F1E243C211E1F1E243C211E1F1E24F1
:1002D6003C1A3C1C3C211E1F1E243C211E1F1E24B2
:1002E6003C211E1F1E241E1C5A1A3C181E211E24A9
:1002F6001E1C5A1A3C181E211E241E185A18782431
:10030600F0211E1C5A1A3C181E211E241E1C5A1AA5
:100316003C181E211E241E185A18F024F024FAFF39
:10032600075009500C500C500C500E2810C8245081
:10033600102813281550155017321532133210A0F5
:10034600245010500EA00E280C28095007500950B2
:10035600245007500CA00C500C500EA02450072817
:1003660009280C500C500C500E2810C82450102888
:1003760013281550155017321532133210A0245079
:1003860010500EA00E280C280928072809F00C503A
:100396000BA00950075009A00C500E5010501350D6
:1003A60010280E280C280E281050155010280E283C
:1003B6000C280E281050175017501028132815A077
:1003C60015501350155013501528132810280E28B1
:1003D60010501350105010500EA00C500E5010A07C
:1003E6000C500E501050135010280E280C280E28B2
:1003F6001050155010280E280C280E281050175093
:1004060017501028132815A015501328152824F066
:100416001350155018A01550105013F024F007284B
:1004260009280C500C500C500E2810C824501028C7
:1004360013281550155017321532133210A02450B8
:1004460010500EA00E280C280928072809F00C5079
:100456000BA00950072809C824A0075009500C50C2
:100466000C500C500E2810C8245010281328155074
:10047600155017321532133210A024500E281028AA
:100486000EA00E280C28095007500950245007507A
:100496000CA00C500C500EA02450072809280C5014
:1004A6000C500C500E2810C8245010281328155034
:1004B600155017321532133210A0245010500EA0CA
:1004C6000E280C280928072809F00C500BA0095003
:1004D600075009A00C500E501050135010280E282B
:1004E6000C280E281050155010280E280C280E28FF
:1004F6001050175017501028132815A015501350D8
:10050600155013501528132810280E281050135074
:10051600105010500EA00C500E5010A00C500E5043
:100526001050135010280E280C280E281050155065
:1005360010280E280C280E28105017501750102877
:10054600132815A015501350155015A01850185003
:1005560018501550105013A024A024F0072809287D
:100566000C500C500C500E2810C82450102813287C
:100576001550155017321532133210A02450105052
:100586000EA00E280C280928072809F00C500BA0ED
:100596000950075009A00C500E5010501350102847
:1005A6000E280C280E281050155010280E280C283E
:1005B6000E281050175017501028132815A0155044
:1005C6001350155013501528132810280E281050B4
:1005D6001350105010500EA00C500E5010A00C507E
:1005E6000E501050135010280E280C280E281050AC
:1005F600155010280E280C280E281050175017508A
:100606001028132815A015501328152824F0135068
:10061600155018A01550105013F024F0072809287B
:100626000C500C500C500E2810C8245010281328BB
:100636001550155017321532133210A02450105091
:100646000EA00E280C280928072809F00C500BA02C
:0B0656000950072809C824A024FAFF5F
:1009490006120120016303260119FF021A000001A2
:0D0959001800011100011C00C10001100078
:0809BD008F19E4F51AF51B2265
:0B09B200E519F460037F01227F0022A2
:0300D30002096CB3
:10096C00C0E0C083C08290FEC5E4F090FEFA300077
:10097C0005E51CF08002E4F0B200D082D083D0E018
:01098C003238
:1008B40090FEB67420F090FEB57410F090FEEDE456
:1008C400F090FEEA7460F090FEED7401F090FEF991
:1008D400E4F0A3F090FEF204F0A3E4F090FEFD74C3
:0908E40080F090FEE07401F022A6
:1009A20090FEE0E4F090FEFDF090FEB5F0C28222EF
:10098D0090FECEE4F0A3F090FEC5F090FEC404F00E
:05099D0090FEC0F022F5
:0A00C90090FEC0E4F090FEC4F022A7
:10066100E51024E4700302071C24F77003020768F5
:1006710024FD700302077F24F570030207ED24FDBA
:100681007003020804244060118000200103020865
:100691002275C1367510F67F0122E5186004151820
:1006A1008009E511600515117518C8E519F460DBBD
:1006B10075111E1208B475C136E51925E02412F82A
:1006C100E6FE08E68E83251BF582E583351AF58360
:1006D100E493FFB4FF0B7519FFE4F51AF51B02084B
:1006E10019EF25E024D6F582E43400F583E493FE86
:1006F100740193FF4E6019EEC313FCEF13FDEC90F0
:10070100FED2F0AF05A3EFF012098D751CFF800535
:1007110090FEFAE4F075101C7F4B22051BE51B705F
:1007210002051AE51925E02412F8E6FE08E68E8393
:10073100251BF582E583351AF583E49324F1F51839
:10074100051BE51B7002051AE518D394004033E53B
:100751001C600EE51C75F0688404FFC3E51C9FF561
:100761001C7510257F0222E51C600DE51C75F058F3
:1007710084FFC3E51C9FF51C7510287F0322151803
:1007810080C675C136E51925E02412F8E6FE08E6B3
:10079100FF8E83251BF582E583351AF583E49325C6
:1007A100E024D6F582E43400F5837401937002E409
:1007B10093705C051BE51B7002051A8F828E8325E1
:1007C10082F582E583351AF583E493F518E518D3AC
:1007D10094004033E51C600EE51C75F0688404FF4D
:1007E100C3E51C9FF51C7510337F0222E51C600DCB
:1007F100E51C75F05884FFC3E51C9FF51C75103688
:100801007F0322151880C6051BE51B7002051A120D
:1008110000C9E4F51C0206B71209A27518C8020640
:060821008CE4F5107FFFDE
:0108270022AE
:02096600C1814D
:10006600E4F58E759840758BFC758DFFD28EF589FB
:0C00760075A882758ACD758CF8D28C229A
:1008ED0075C12675C13675BA807590847592367549
:1008FD0091C875800875940FE4F593F5A0F596F5FC
:10090D009575B0FF75B20275B10475C810F5CA754D
:03091D00C91022DC
:09008600E4F51D1208ED120066FC
:0D008F00751E057420251EF8E4F6D51EF63A
:04009C00E5217010DA
:1000A0001206618F1EE521651E6005851E2180F503
:1000B0001209B2EF70E6AF1D051D1209BDE51DD393
:0900C000940240D8E4F51D80D340
:0309680001260065
:03000300020006F2
:0400060043C760325A
:03000B00020920C7
:07092000C0E0C0D075D00853
:10092700751F057420251FF8E6600F7420251FF832
:0D093700E6F460067420251FF816D51FE6B3
:05094400D0D0D0E0322C
:0300130002000EDA
:04000E0043C7603252
:03001B00020016CA
:0400160043C760324A
:0300230002001EBA
:04001E0043C7603242
:03002B00020026AA
:0400260043C760323A
:0300330002002E9A
:04002E0043C7603232
:03003B000200368A
:0400360043C760322A
:0300430002003E7A
:04003E0043C7603222
:03004B000200466A
:0400460043C760321A
:0300530002004E5A
:04004E0043C7603212
:03005B000200564A
:0400560043C760320A
:0300630002005E3A
:04005E0043C7603202
:030083000209C5AA
:0409C50043C7603292
:10083400020086E493A3F8E493A34003F68001F254
:1008440008DFF48029E493A3F85407240CC8C333C5
:10085400C4540F4420C8834004F456800146F6DF94
:10086400E4800B0102040810204080900949E47ED2
:10087400019360BCA3FF543F30E509541FFEE49389
:10088400A360010ECF54C025E060A840B8E493A350
:10089400FAE493A3F8E493A3C8C582C8CAC583CA7B
:1008A400F0A3C8C582C8CAC583CADFE9DEE780BE33
:01096B00008B
:00000001FF
