:060000000200D90202011A
:03000B00020205E9
:03001300020234B2
:03001B00020238A6
:0300230002023C9A
:03002B000202408E
:0300330002024482
:03003B0002024876
:0300430002024C6A
:03004B000202505E
:0300530002025452
:03005B0002025846
:0300630002025C3A
:01006B003262
:01007300325A
:01007B003252
:01008300324A
:01008B003242
:01009300323A
:01009B003232
:0100A300322A
:0100AB003222
:0100B300321A
:0100BB003212
:0100C300320A
:0100CB003202
:0300D30002027AAC
:02013200D200F9
:03015C000200D6C8
:0300D6000201B371
:10015F00758E00759840758BFC758DFFD28E7589E5
:10016F000075A882758ACD758CF8D28C2275C12640
:10017F0075C13675BA807590847592367591C8754C
:10018F00800875940F75930075A00075960075958E
:10019F000075B0FF75B20275B10475C81075CA004D
:1001AF0075C910227F00C00712017C12015FD007B2
:1001BF007E058E05ED142410F87600DEF5E510703F
:1001CF0013C00712030AAE82D007EEB510028004E7
:1001DF008E1080F6C007120269E582D00770DE8F9D
:1001EF00820FC007120260D007EF24FD50CF7F00AF
:0201FF0080CBB3
:030134007515003E
:1002010043C76032C0E0C0D075D0087F058F0EEEC5
:10021100142410F9E76015EE142410F9870DBDFFC1
:10022100028009EE142410F9E7FE14F7DFDFD0D0C5
:10023100D0E03243C7603243C7603243C7603243C4
:10024100C7603243C7603243C7603243C76032433D
:0F025100C7603243C7603243C7603243C7603271
:10013700752D007521EB75220575232E752406751F
:1001470025F17526077527FFE4F528F529F52AF522
:050157002BF52CC20194
:10026000858227E4F528F5292274FFB52703D3807A
:1002700001C3B39202E433F58222C0E0C082C0839E
:1002800090FEC5E4F030010890FEFAE52CF0800500
:1002900090FEFAE4F0B201D083D082D0E03290FE3A
:1002A000B67420F090FEB503F090FEEDE4F090FE01
:1002B000EA7460F090FEED7401F090FEF9E4F090C5
:1002C000FEFAF090FEF204F090FEF3E4F090FEFDF2
:1002D0007480F090FEE023F02290FEE0E4F090FEC7
:1002E000FDF090FEB5F0C2822290FECEE4F090FECA
:1002F000CFF090FEC5F090FEC404F090FEC0F02256
:1003000090FEC0E4F090FEC4F022741CB52D0302F0
:1003100003FA7425B52D030204507428B52D030289
:1003200004747433B52D030204F37436B52D03023F
:10033000051774F6B52D02801020000302053575EF
:10034000C136752DF675820122E52A6004152A80D2
:1003500009E52B6005152B752AC874FFB5270280A7
:10036000D8752B1E12029E75C136E527252724213C
:10037000F9870609870719E5282EF582E5293FF553
:1003800083E493FFBFFF0B7527FFE4F528F52902EF
:10039000052CEF75F002A424A1F582740535F0F563
:1003A00083E493FEA3E493FF4E6043EFC313CE13A5
:1003B000CEFE90FED2EEF08706098707E5282EF5DF
:1003C00082E5293FF583E49375F002A424A1F58228
:1003D000740535F0F583E493FEA3E493C313CE13C1
:1003E000CE90FED3EEF01202E9752CFF800590FE50
:1003F000FAE4F0752D1C75824B220528E4B528021D
:100400000529E52725272421F98706098707E528F7
:100410002EF582E5293FF583E493FF24F1F52A05C3
:1004200028E4B528020529E52A604DE52C601AAEBE
:100430002C7F007516688F178E828F83120565AE2C
:10044000820EE52CFFC39EF52C752D2575820222A8
:10045000E52C6019AE2C7F007516588F178E828F91
:1004600083120565AE82E52CFFC39EF52C752D2801
:1004700075820322152A80AF75C136E5272527240A
:1004800021F9870609870719E5282EF582E5293F16
:10049000F583E49375F002A424A1F582740535F088
:1004A000F583E493FEA3E493FF4E60030205230566
:1004B00028E4B5280205298706098707E5282EF5CF
:1004C00082E5293FF583E493F52AE52A604DE52C82
:1004D000601AAE2C7F007516688F178E828F83127C
:1004E0000565AE820EE52CFFC39EF52C752D337588
:1004F000820222E52C6019AE2C7F007516588F17EA
:100500008E828F83120565AE82E52CFFC39EF52C8B
:10051000752D3675820322152A80AF0528E4B5288B
:10052000020529120300752C000203671202D97517
:0C0530002AC8020339752D007582FF22D5
:1005A10020A5DA9B1C93DA8A0E83B47BC274346E65
:1005B10006682E62AC5C78579052EE4D8C496C45C2
:1005C1008841DA3D603A1A3702341831562EBC2B75
:1005D1004829F626C624B622C420F01E301D8E1BE3
:1005E100021A8C182A17DE1500000C320E32103256
:1005F1000C320C320E3210320C32103211321364C2
:1006010010321132136413191519131911191032FB
:100611000C32131915191319111910320C32103229
:1006210007320E64103207320E6424FAFF0E5A0CA0
:100631001E0E5A0C1E0E3C103C133C103C0E5A0C64
:100641001E0E5A0C1E0E1E101E0E1E0C1E09780EBA
:100651005A0C1E0E5A0C1E0E3C103C133C103C0E44
:100661005A0C1E0E3C0C3C0EF00E5A0C1E0E5A0C6F
:100671001E0E3C103C133C103C0E5A0C1E0E3C0C42
:100681003C0978101E0E1E0C1E0E1E0C78101E0E3C
:100691001E0C1E0E1E0C5A071E101E0E1E0C1E0EC8
:1006A1001E0CF00C3C0E3C103C0C3C153C131E1572
:1006B100780C1E173C151E1796173C151E171E2485
:1006C1003C103C181E1A1E181E171E153C133C1513
:1006D1003C131E151E241E131E151E131E153C133E
:1006E1001E0E1E243C133C107824780C3C0E3C104A
:1006F1003C0C3C153C131E151E245A0C1E173C15B0
:100701001E171E2478173C151E171E243C103C187A
:100711001E1A1E181E171E153C133C153C1C1E1CD0
:100721001E243C133C153C1C1E1C1E243C133C1572
:100731007824F0183C1A3C1C3C211E1F1E243C212D
:100741001E1F1E243C211E1F1E243C1A1E1C1E247B
:100751003C211E1F1E243C211E1F1E243C211E1F46
:100761001E241E1C5A1A3C181E151E243C181E1845
:100771001E1A1E181E153C241E185A1C78241E1DF4
:100781001E1C1E1A1E1C1E1A5A183C1A3C1C3C2107
:100791001E1F1E243C211E1F1E243C211E1F1E2421
:1007A1003C1A3C1C3C211E1F1E243C211E1F1E24E2
:1007B1003C211E1F1E241E1C5A1A3C181E211E24D9
:1007C1001E1C5A1A3C181E211E241E185A18782461
:1007D100F0211E1C5A1A3C181E211E241E1C5A1AD6
:1007E1003C181E211E241E185A18F024F024FAFF6A
:1007F100075009500C500C500C500E2810C82450B2
:10080100102813281550155017321532133210A025
:10081100245010500EA00E280C28095007500950E2
:10082100245007500CA00C500C500EA02450072847
:1008310009280C500C500C500E2810C824501028B8
:1008410013281550155017321532133210A02450A9
:1008510010500EA00E280C280928072809F00C506A
:100861000BA00950075009A00C500E501050135006
:1008710010280E280C280E281050155010280E286C
:100881000C280E281050175017501028132815A0A7
:1008910015501350155013501528132810280E28E1
:1008A10010501350105010500EA00C500E5010A0AC
:1008B1000C500E501050135010280E280C280E28E2
:1008C1001050155010280E280C280E2810501750C3
:1008D10017501028132815A015501328152824F097
:1008E1001350155018A01550105013F024F007287C
:1008F10009280C500C500C500E2810C824501028F8
:1009010013281550155017321532133210A02450E8
:1009110010500EA00E280C280928072809F00C50A9
:100921000BA00950072809C824A0075009500C50F2
:100931000C500C500E2810C82450102813281550A4
:10094100155017321532133210A024500E281028DA
:100951000EA00E280C2809500750095024500750AA
:100961000CA00C500C500EA02450072809280C5044
:100971000C500C500E2810C8245010281328155064
:10098100155017321532133210A0245010500EA0FA
:100991000E280C280928072809F00C500BA0095033
:1009A100075009A00C500E501050135010280E285B
:1009B1000C280E281050155010280E280C280E282F
:1009C1001050175017501028132815A01550135008
:1009D100155013501528132810280E2810501350A5
:1009E100105010500EA00C500E5010A00C500E5074
:1009F1001050135010280E280C280E281050155096
:100A010010280E280C280E281050175017501028A7
:100A1100132815A015501350155015A01850185033
:100A210018501550105013A024A024F007280928AD
:100A31000C500C500C500E2810C8245010281328AC
:100A41001550155017321532133210A02450105082
:100A51000EA00E280C280928072809F00C500BA01D
:100A61000950075009A00C500E5010501350102877
:100A71000E280C280E281050155010280E280C286E
:100A81000E281050175017501028132815A0155074
:100A91001350155013501528132810280E281050E4
:100AA1001350105010500EA00C500E5010A00C50AE
:100AB1000E501050135010280E280C280E281050DC
:100AC100155010280E280C280E28105017501750BA
:100AD1001028132815A015501328152824F0135099
:100AE100155018A01550105013F024F007280928AC
:100AF1000C500C500C500E2810C8245010281328EC
:100B01001550155017321532133210A024501050C1
:100B11000EA00E280C280928072809F00C500BA05C
:0B0B21000950072809C824A024FAFF8F
:06010800E478FFF6D8FDCB
:1000E6007900E94400601B7A00900B2C780175A01A
:1000F60000E493F2A308B8000205A0D9F4DAF27579
:02010600A0FF58
:10053C007A10E4FBFCE58225E0F582E58333F58354
:10054C00EB33FBEC33FCEB9516F5F0EC9517400612
:09055C00FCABF0438201DADD2260
:10010E007800E84400600A790175A000E4F309D88C
:10011E00FC7800E84400600C7900900001E4F0A344
:04012E00D8FCD9FA26
:0D00D90075812D12059DE58260030200D6A1
:10056500C2D5E58330E70DD2D5E4C39582F582E4A3
:100575009583F583E51730E70DB2D5E4C39516F5F8
:1005850016E49517F51712053C30D50BE4C3958293
:0C059500F582E49583F583227582002234
:00000001FF
